:100000000C942A000C9434000C9434000C943400AA
:100010000C9434000C9434000C9434000C94340090
:100020000C9434000C9434000C9434000C94340080
:100030000C9434000C9434000C9434000C94340070
:100040000C9434000C9434000C9434000C94340060
:100050000C94340011241FBECFE5D8E0DEBFCDBF25
:100060000E9436000C944F000C94000087B381600E
:1000700087BB87B38D7F87BB88B3826088BBB1990C
:1000800004C088B3816088BB03C088B38E7F88BBFF
:1000900083ED90E30197F1F700C00000F0CFF894F2
:0200A000FFCF90
:00000001FF
